:020000040800F2
:1000000000000220E1050008DD0500080D2F0008B2
:10001000DD050008DD050008DD0500080000000022
:10002000000000000000000000000000DD050008E6
:10003000DD05000800000000DD050008912E000825
:10004000DD050008DD050008DD050008DD05000808
:10005000DD050008DD050008DD050008DD050008F8
:10006000DD050008DD050008DD050008992A000807
:10007000A52A0008DD050008B12A0008BD2A0008ED
:1000800075C40008C51F0008DD050008DD0500086F
:10009000DD050008DD050008DD050008DD050008B8
:1000A000DD050008DD050008DD050008DD050008A8
:1000B00035B8000841B800084DB80008F91F00081D
:1000C000DD05000805200008DD050008A5B00008D2
:1000D000B1B00008A9C20008D9C200080DC30008C9
:1000E000DD050008DD05000800000000DD05000852
:1000F000DD050008DD050008DD050008DD05000858
:10010000DD050008DD05000859B80008BDB000088D
:1001100041C3000875C30008DD050008DD050008BF
:10012000DD050008DD050008E1B0000815B1000894
:10013000A9C40008DD050008DD050008DD0500088C
:1001400000000000000000000000000000000000AF
:10015000DD050008DD050008DD050008A9C300086D
:1001600011200008DD050008A12E0008C52E00089A
:10017000DD050008E92E0008DD050008DD050008A2
:10018000DD050008DD050008DDC300080DC400081A
:10019000C9B00008D5B00008DD050008DD0500087D
:1001A000DD050008DD050008DD050008DD050008A7
:1001B000B9270008DD050008DD050008DD05000899
:1001C000DD050008DD050008DD050008DD05000887
:1001D000DD050008DD050008DD050008DD05000877
:1001E000DD050008DD050008DD050008DD05000867
:1001F000DD050008DD050008DD050008DD05000857
:10020000DD050008DD050008DD050008DD05000846
:10021000DD050008DD050008DD050008DD05000836
:10022000DD050008DD050008DD0500080000000010
:10023000DD050008DD05000800000000DD05000800
:10024000DD050008DD050008DD050008DD05000806
:10025000DD050008DD050008DD050008DD050008F6
:10026000DD050008DD050008DD050008DD050008E6
:10027000DD050008DD05000841C40008000000009D
:10028000DD050008DD050008DD05000800000000B0
:0802900000000000DD0500087C
:1002980010B5054C237833B9044B13B10448AFF3B8
:1002A80000800123237010BD80030024000000009B
:1002B800A4F4000808B5034B1BB103490348AFF386
:1002C800008008BD0000000084030024A4F4000896
:1002D80053B94AB9002908BF00281CBF4FF0FF31A5
:1002E8004FF0FF3000F074B9ADF1080C6DE904CEA1
:1002F80000F006F8DDF804E0DDE9022304B07047F9
:100308002DE9F047089D04468E46002B4DD18A42C0
:10031800944669D9B2FA82F252B101FA02F3C2F1F3
:10032800200120FA01F10CFA02FC41EA030E944084
:100338004FEA1C48210CBEFBF8F61FFA8CF708FBA5
:1003480016E341EA034306FB07F199420AD91CEB7D
:10035800030306F1FF3080F01F81994240F21C81AF
:10036800023E63445B1AA4B2B3FBF8F008FB1033F7
:1003780044EA034400FB07F7A7420AD91CEB04042C
:1003880000F1FF3380F00A81A74240F207816444FC
:10039800023840EA0640E41B00261DB1D440002381
:1003A800C5E900433146BDE8F0878B4209D9002DE5
:1003B80000F0EF800026C5E9000130463146BDE86F
:1003C800F087B3FA83F6002E4AD18B4202D38242D9
:1003D80000F2F980841A61EB030301209E46002D88
:1003E800E0D0C5E9004EDDE702B9FFDEB2FA82F2DD
:1003F800002A40F09280A1EB0C014FEA1C471FFA3B
:100408008CFE0126200CB1FBF7F307FB131140EA21
:1004180001410EFB03F0884208D91CEB010103F1EE
:10042800FF3802D2884200F2CB804346091AA4B2B0
:10043800B1FBF7F007FB101144EA01440EFB00FE84
:10044800A64508D91CEB040400F1FF3102D2A645E9
:1004580000F2BB800846A4EB0E0440EA03409CE788
:10046800C6F12007B34022FA07FC4CEA030C20FA35
:1004780007F401FA06F31C43F9404FEA1C4900FA55
:1004880006F3B1FBF9F8200C1FFA8CFE09FB1811D2
:1004980040EA014108FB0EF0884202FA06F20BD945
:1004A8001CEB010108F1FF3A80F08880884240F295
:1004B8008580A8F102086144091AA4B2B1FBF9F0D9
:1004C80009FB101144EA014100FB0EFE8E4508D9D4
:1004D8001CEB010100F1FF346CD28E456AD9023859
:1004E800614440EA0840A0FB0294A1EB0E01A1423E
:1004F800C846A64656D353D05DB1B3EB080261EBAC
:100508000E0101FA07F722FA06F3F1401F43C5E985
:10051800007100263146BDE8F087C2F12003D840BB
:100528000CFA02FC21FA03F3914001434FEA1C47FD
:100538001FFA8CFEB3FBF7F007FB10360B0C43EAEF
:10054800064300FB0EF69E4204FA02F408D91CEB9F
:10055800030300F1FF382FD29E422DD9023863449D
:100568009B1B89B2B3FBF7F607FB163341EA03413D
:1005780006FB0EF38B4208D91CEB010106F1FF388C
:1005880016D28B4214D9023E6144C91A46EA004683
:1005980038E72E46284605E70646E3E61846F8E615
:1005A8004B45A9D2B9EB020864EB0C0E0138A3E75E
:1005B8004646EAE7204694E74046D1E7D0467BE73F
:1005C800023B614432E7304609E76444023842E7B7
:1005D800704700BFFEE700BF0B480C4A904203D0AB
:1005E800121A0B490EF084FE0A480B4A904203D0B7
:1005F800121A00210EF08AFE02F0ACFE0EF054FE34
:1006080000F024F8FEE700BF000000247C0300246B
:10061800D4F400088003002490370024704700BFFA
:100628009AB10368406803EB820C10B40C684968FF
:1006380053F8042B44F8042B634550F8042B41F875
:10064800042BF5D15DF8044B7047704738B500218D
:100658000F4800F0DDF804210D48012500F050F89E
:1006680003210B4800F030F80A49094800F028F83F
:100678000A242946064800F05FF821460134044858
:1006880000F01AF885F00105C82CF2D1F0E700BF98
:100698009C0300242906000804480023044A05494D
:1006A8000360436103620EF0EBBD00BF9C030024AE
:1006B8000000002425060008084602F093BC00BF8D
:1006C800143001F009BA00BF38B500F1140504462A
:1006D8002DED028B284601F0BBF9284601F0B4F94C
:1006E8002846B0EE408A01F09DF9D0ED007AF8EE88
:1006F800677A88EE277ABDEC028B84ED0E7A38BDD6
:1007080038B500F1140504462DED028B284601F09A
:100718008DF9284601F098F92846B0EE408A01F094
:1007280081F9D0ED007AF8EE677A88EE277ABDEC89
:10073800028B84ED0E7A38BD253001F0EBBA00BF8C
:10074800F0B5032399B000270125129306462C4BD8
:1007580009A81595CDE90E7340F20453ADF8403061
:10076800284BCDE91357099301F0EAF909A801F0DC
:10077800C3FA002836D1244B04AF04460090CDF8C4
:1007880042301023394604958DF820301F4BCDE9AF
:100798001650CDE906506846059301F03BFC082346
:1007A800009A01A909A8ADF804508DF806400994EB
:1007B8000295039300F0E4F800230EA9384630248C
:1007C800049302F0F1F903224FF07E5309A906F1D0
:1007D80014000B930C93CDE90942049A01F0EAF84E
:1007E80019B0F0BD40F60132074B169704AFADF8CB
:1007F80024200998CDF84230179500F081F8DBE7FE
:100808000402040403030001040604030704010BA3
:100818002DE9F04304462DED028B83B0002948D022
:10082800012140F2011200230091ADF804208DF857
:100838000630304A0126304B271D304904F129087B
:10084800626040F20272A36040F60663E16004F160
:1008580025092682A4F8252084F82760A4F82930E1
:1008680084F82B6002F02CFD6946054648B304F174
:1008780030008DF8066002F081FC072D34D104F1B8
:1008880014052046FFF75CFF284601F0DDF82846EE
:10089800B0EE408A01F0C6F8D0ED007AF8EE677A3B
:1008A80088EE277A84ED0E7A03B0BDEC028BBDE8A2
:1008B800F08340F2011300918DF80610ADF8043072
:1008C800B7E704F1300002F059FC3946204601F040
:1008D800EBFD484601F034F9404601F031F904F1E6
:1008E800120000F077F9CAE73946204601F0DCFD2E
:1008F800C5E700BF0508050905070506050A060638
:1009080010B584B003460124ADF8040003A8ADF87F
:100918000C30ADF80E4001F013F9214603A801F0A0
:10092800F9F9204602F05EFB002103A801F0F2F974
:10093800204602F057FB214603A801F0EBF904B06A
:1009480010BD00BF10B5C2F3002384B00C46017C73
:100958008DF80D2043EA4402FA2402238DF80C2076
:1009680003AA009401F0ECFB18B10124204604B05E
:1009780010BD04460A2002F035FB204604B010BD25
:10098800034670B543F8042B044684B007C983E8CE
:100998000700A37983B91A210B461E22FA2523746E
:1009A8002046ADF80C20022303AA009501F0C8FBED
:1009B80028B1012004B070BD1B210B46EDE70A20C9
:1009C80002F010FB4FF4B85200950223ADF80C204A
:1009D800204603AA217C01F0B3FB0028E9D10A20B4
:1009E80002F000FB41F2027200950223ADF80C20E0
:1009F800204603AA217C01F0A3FB0028D9D10A20B4
:100A080002F0F0FA042200950223ADF80C202046EB
:100A180003AA217C01F094FB0028CAD10A2002F025
:100A2800E1FA062200950223ADF80C20204603AA1D
:100A3800217C01F085FB0028BBD10A2002F0D2FA04
:100A480041F2082200950223ADF80C20204603AAA3
:100A5800217C01F075FB0028ABD10A20064602F084
:100A6800C1FA0095022303AA217C2046ADF80C6048
:100A780001F066FB00289CD1304602F0B3FA0095DD
:100A880022790C232046002A8DF80C3003AA4FF057
:100A9800020314BF622142218DF80D10217C01F060
:100AA8004FFB002885D1304602F09CFA2279D4E920
:100AB80002310B43DBB20AB943F0400362790AB151
:100AC80043F020030E22FA258DF80D3020460095BC
:100AD80002238DF80C2003AA217C01F031FB0028A9
:100AE8007FF467AF0A2002F07DFA102200950223F6
:100AF800ADF80C20204603AA217C01F021FB002838
:100B08007FF457AF0A2002F06DFA122100950223F4
:100B1800ADF80C1003AA217C204601F011FB002837
:100B28007FF447AF0A2002F05DFA0122092120462E
:100B3800FFF708FF003818BF01203BE7F0B5102386
:100B480087B0234C012200250126002702A9204650
:100B58000195CDE902234FF48052CDE9046708F0EE
:100B680087FB642002F052FE02A94FF4805220460F
:100B7800CDE9046702261027CDE9026708F078FB63
:100B88000322102302A92046CDE9022300230422D0
:100B9800CDE904234FF4805208F06AFB40F2322377
:100BA800042202A9019310232046CDE90223019AC9
:100BB800012305924FF48052049308F059FB40F644
:100BC8000601204608F074FB284607B0F0BD00BFB8
:100BD800E00300241C4B00221C494FF0400C30B5A8
:100BE800054689B00220596007219A601A620124DB
:100BF800DA620A224FF4006EDC6006922022CDE908
:100C0800000104200821CDE9020103201021CDE9CB
:100C1800040108206946C3E904024FF4C072181D94
:100C2800C3E906C24FF48052C3E909E208F0F6FAB4
:100C380038B92846FFF782FF003818BF012009B0ED
:100C480030BD204609B030BDDC03002440410052CD
:100C5800614A0021D0B513688EB00A91002B40F08C
:100C6800B9805E4B01214FF683700C24116002217C
:100C7800D3F8D4200026032742F48052C3F8D420A6
:100C8800D3F8D42002F480520092009AD3F8E020DE
:100C980042F01002C3F8E020D3F8E02002F010027E
:100CA8000192019AD3F8E02042F04002C3F8E02014
:100CB800D3F8E02002F040020292029AD3F8E02032
:100CC80042F00802C3F8E020D3F8E02002F008025E
:100CD8000392039AD3F8E02042F48072C3F8E0202C
:100CE800D3F8E02002F480720492049AD3F8E0204A
:100CF80042F08002C3F8E020D3F8E02002F080023E
:100D08000592059AD3F8E02042F02002C3F8E020CB
:100D1800D3F8E02002F020020692069AD3F8E020E9
:100D280042F00402C3F8E020D3F8E0300C9403F05A
:100D3800040307930323079A0B93CDE9080108A935
:100D4800274803F009FE48F23712022308A925486C
:100D58000C94CDE90823CDE90A6703F0FDFD4CF2B8
:100D68000372022308A920480C94CDE90823CDE991
:100D78000A6703F0F1FD40F2FF62022308A91B484D
:100D88000C94CDE90823CDE90A6703F0E5FD4FF699
:100D98000C72022308A916480C94CDE90823CDE962
:100DA8000A6703F0D9FD4FF63F02022308A911484C
:100DB8000C94CDE90823CDE90A6703F0CDFD202284
:100DC800022308A90A480C94CDE90A67CDE908234B
:100DD80003F0C2FD0EB0D0BDD80300240044025871
:100DE8000010025800180258000C0258002002583F
:100DF800001C0258001402582DE9F04FDFF8108447
:100E080006460D46144608F118002DED028B89B0F0
:100E180000AF01F0C1FFD8F8183073B3D8F81C3010
:100E2800D8F80490002B43690BBF4FF0080A4FF025
:100E3800100A4FF0020B4FF0040BB9F1000F2AD043
:100E4800A200EA46012B02F1070222F00702ADEBED
:100E5800020D6846ADEB020D694600F03F81022B9A
:100E680000F0D680002B6FD02246C847D5462437DD
:100E7800BD46BDEC028BBDE8F08FD8F81C30002BC6
:100E8800F5D0D8F804904FF0080A4FF0020B4369E8
:100E9800B9F1000FD4D1FB61D8F80030BB61002B49
:100EA800E5D0D54801F0EAFF6B46BBF1020F786147
:100EB80008EE103AFB6900F083816A465146A2EBBE
:100EC800C40295466200EA46B2FBFBF2AAEBC400F4
:100ED80085460AEB8200EE46F861ADEB010DF86934
:100EE8000EEB820CC7F810C0EC46ADEB010D00EB21
:100EF8008201CCF80400CCF8081001EB82013869B3
:100F0800E946CCF80C1000EB8201CCF800A001EB0C
:100F18008202C9E900E0C9E90212012B00F06483EA
:100F2800022B00F06C82002B00F080816208494699
:100F38006046BB69984718EE103A24379D46BD466F
:100F4800BDEC028BBDE8F08F002C8DD01A46D8ED91
:100F58000C6A9FEDB27A8446331D36F922E00CF113
:100F6800080C07EE90EA33F922E00232F8EEE77A4D
:100F7800944267EE877A67EEA67A4CED027A07EE1E
:100F880090EAF8EEE77A67EE877A67EEA67A4CED94
:100F9800017AE2D8F9612246C847984ED8ED0D6A21
:100FA8000020F9692B1D9FED9E7A9FED9E6ADFED6B
:100FB8009E5A22E0F4EEC67AF1EE10FAC0F2C88426
:100FC80047F6FE72D1ED017A45F8202066EEA77A41
:100FD800F4EEC77AF1EE10FA40F2F080F4EEC67A39
:100FE800F1EE10FAC0F2D58447F6FE7243F82020DD
:100FF8000230083184427FF639AFD1ED007A66EECF
:10100800A77AF4EEC77AF1EE10FAD3D83246D9E7C8
:10101800002C3FF429AFD8ED0C6A84469FED787A0E
:101028000022331D8E4656F822100CF1080C07EEEC
:10103800901A53F822100232F8EEE77A944267EEDB
:10104800877A67EEA67A4CED027A07EE901AF8EEE8
:10105800E77A67EE877A67EEA67A4CED017AE2D8EE
:1010680071462246C7F81CE0C847664ED8ED0D6A9F
:101078000020F9692B1D9FED6A7A9FED6A6ADFF8F7
:1010880094C120E0F4EEC67AF1EE10FAC0F2798449
:101098003246D1ED017A45F8202066EEA77AF4EEC3
:1010A800C77AF1EE10FA40F28780F4EEC67AF1EED4
:1010B80010FAC0F25E84324643F82020023008312C
:1010C80084427FF6D3AED1ED007A66EEA77AF4EECD
:1010D800C77AF1EE10FAD5D86246DAE7002C3FF469
:1010E800C3AED8ED0C6A86469FED477A4FF0000CE8
:1010F800331D56F82C200EF1080E82F40002A2F5DA
:10110800000207EE902A53F82C200CF1020CF8EE9E
:10111800E77A82F400026445A2F5000267EE877A56
:1011280067EEA67A4EED027A07EE902AF8EEE77A95
:1011380067EE877A67EEA67A4EED017AD9D8F9611B
:101148002246C847314ED8ED0D6A0020F9692B1D9B
:101158009FED337A9FED336ADFF8BCC01FE0F4EEF1
:10116800C67AF1EE10FAC0F2FC833246D1ED017A6C
:1011780045F8202066EEA77AF4EEC77AF1EE10FA69
:1011880018D9F4EEC67AF1EE10FAC0F2DA833246D4
:1011980043F820200230083184427FF667AED1ED53
:1011A800007A66EEA77AF4EEC77AF1EE10FAD6D88E
:1011B8006246DBE76246EBE762467DE7324615E7C3
:1011C800A100D6466208073121F00701ADEB010DF9
:1011D800EA46ADEB010D6946ADEB0E0D0AEB820058
:1011E800EC46ADEB0E0D01EB8202F861E946CCE965
:1011F80000A0C9E9001290E6300400240280FFFF35
:10120800000000300082FF7F0000003482FF7F0072
:1012180014040024007E00807E0080FF0000003857
:1012280004FF7FBF04FF7F3F00FEFF46002C00F055
:10123800C982BBF1020FD8F8242000F0FA8279693C
:10124800C7F8049002EB810E5FED0C5A8A00DCF8B7
:1012580008100EF104007A611A46DCF80C303B6184
:10126800331DD7F810903D61FD69C7E902CB8C4664
:10127800834636F92210D8ED0C7A06EE101A33F9A7
:10128800221006EE901A3EF92210B8EEC66A07EE52
:10129800101AF8EEE66A3BF92210B8EEC77A26EE85
:1012A800256A66EEA56A27EE257A26EE276A66EE97
:1012B800A76A27EE277A07EE901A51080232F8EE4D
:1012C800E77A0AEB8100944280ED006A05EB810021
:1012D80067EEA57AC0ED006A0CEB810009EB81018D
:1012E80080ED007A98ED0C7A67EE877AC1ED007A86
:1012F800BFD8D7F804903D69D7E902CB60466208A9
:10130800BB6949469847D8F82C307A69D8ED0D6AF8
:101318001A441FED3D7A1FED3D6A2B1D904602F1E0
:10132800040A5FED3F5A0022A84ED9E900EC51E0CB
:10133800F4EEC67AF1EE10FAC0F2C78247F6FE70F4
:1013480045F822000CEB0100D0ED007A66EEA77A92
:10135800F4EEC77AF1EE10FA4BD9F4EEC67AF1EE54
:1013680010FAC0F2BA8247F6FE70BBF1020F43F8DA
:1013780022002BD0D9F808000844D0ED007A66EE98
:10138800A77AF4EEC77AF1EE10FA36D9F4EEC67AF7
:10139800F1EE10FAC0F2CD8247F6FE7048F822004E
:1013A800D9F80C000144D1ED007A66EEA77AF4EE84
:1013B800C77AF1EE10FA1ED9F4EEC67AF1EE10FAF9
:1013C800C0F2AF8247F6FE714AF822100232944208
:1013D8007FF6B1AD51080EEB81008900D0ED007A9F
:1013E80066EEA77AF4EEC77AF1EE10FAA0D8304686
:1013F800A6E73046B9E73146E6E73046CEE7002CA7
:1014080000F0E081BBF1020FD8F8243000F0E18150
:101418007A69DCF8081003EB820EC7F80490930091
:10142800DFED6B5A0EF1040000227B61DCF80C3012
:101438003B61331DD7F810903D61FD69C7E902CBC8
:101448008C46834656F82210D8ED0C7A07EE101A0F
:1014580053F82210B8EEC76A07EE101A5EF8221089
:10146800F8EEC76A07EE101A26EE256A5BF8221016
:10147800B8EEC77A66EEA56A26EE276A27EE257AC1
:1014880066EEA76A27EE277A07EE901A510802320D
:10149800F8EEE77A0AEB8100944280ED006A05EBEA
:1014A800810067EEA57AC0ED006A0CEB810009EBBC
:1014B800810180ED007A98ED0C7A67EE877AC1EDAC
:1014C800007ABFD8D7F804903D69D7E902CB6046C7
:1014D8006208BB6949469847D8F82C307A69D8ED34
:1014E8000D6A1A449FED3E7A9FED3E6A131D92469F
:1014F800DFF8E4C00022FB612B1D364ED9E9008ECF
:101508004EE0F4EEC67AF1EE10FAC0F2FC813046F5
:1015180045F822000EEB0100D0ED007A66EEA77ABE
:10152800F4EEC77AF1EE10FA49D9F4EEC67AF1EE84
:1015380010FAC0F2EF813046BBF1020F43F82200E7
:101548002AD0D9F808000844D0ED007A66EEA77AC8
:10155800F4EEC77AF1EE10FA35D9F4EEC67AF1EE68
:1015680010FAC0F2C98130464AF82200D9F80C00B6
:101578000144D1ED007A66EEA77AF4EEC77AF1EE6F
:1015880010FA1ED9F4EEC67AF1EE10FAC0F2AD8167
:101598003146F86940F82210023294427FF6CBAC0B
:1015A800510808EB81008900D0ED007A66EEA77A31
:1015B800F4EEC77AF1EE10FAA3D86046A8E76046C1
:1015C800BAE76146E5E76046CEE700BF0280FFFF65
:1015D800000000300082FF7F007E008000000034A1
:1015E80004FF7FBF04FF7F3F002C00F0EB807A6987
:1015F8000021D8F82430C7F8109003EB820ED7F8F2
:101608001C909300FD610EF104021FED0C6A7B61D2
:10161800331D154656F821204808D8ED0C6ABBF151
:10162800020F82F40002A2F5000207EE902A53F896
:10163800212082F40002B8EEE77AA2F5000227EE34
:10164800067A07EE902A0AEB8002F8EEE77A27EE90
:10165800267A67EE867A82ED007A09EB80024FEAF5
:10166800800067EEA67AC2ED007A27D05EF82120C6
:1016780082F40002A2F5000207EE902A55F8212014
:1016880082F40002B8EEE77AA2F5000227EE067AA5
:1016980007EE902ADCF80820F8EEE77A024427EEF5
:1016A800267A67EE867A82ED007A98ED0C7ADCF875
:1016B8000C2067EE877A0244C2ED007A02318C4230
:1016C800A8D8D7F8109060466208BB694946FD69FA
:1016D8009847D8F82C307A69D8ED0D6A1A441FED6E
:1016E800407A1FED406A131D9246DFF8C4C20022FB
:1016F800FB612B1DAB4ED9E9008E4EE0F4EEC67AA5
:10170800F1EE10FAC0F2C580304645F822000EEB23
:101718000100D0ED007A66EEA77AF4EEC77AF1EE12
:1017280010FA49D9F4EEC67AF1EE10FAC0F2BF8089
:101738003046BBF1020F43F822002AD0D9F808003E
:101748000844D0ED007A66EEA77AF4EEC77AF1EE97
:1017580010FA35D9F4EEC67AF1EE10FAC0F2AE807E
:1017680030464AF82200D9F80C000144D1ED007A3D
:1017780066EEA77AF4EEC77AF1EE10FA1ED9F4EE07
:10178800C67AF1EE10FAC0F28B803146F86940F85B
:101798002210023294427FF6CEAB510808EB81004A
:1017A8008900D0ED007A66EEA77AF4EEC77AF1EEFA
:1017B80010FAA3D86046A8E76046BAE76146E5E7AD
:1017C8006046CEE7224649466046BB699847FFF720
:1017D800B2BBC7F810B0002298ED0C6A331DDFEDDC
:1017E800726AD7F81CB0786956F8221007EE901A7A
:1017F80053F82210B8EEE77A07EE901A5108023231
:10180800F8EEE77A27EE267A0AEB810E94420BEB84
:10181800810167EEA67A27EE067A67EE867A8EED64
:10182800007AC1ED007ADFD88300D7F810B07B6169
:101838004DE61A46C7F810B098ED0C6A331DDFED77
:101848005B6AD7F81CB0786936F9221007EE101ACF
:1018580033F9221007EE901AB8EEC77A510802320F
:10186800F8EEE77A27EE267A0AEB810E94420BEB24
:10187800810167EEA67A27EE067A67EE867A8EED04
:10188800007AC1ED007ADFD88300D7F810B07B6109
:1018980034E5F0EE675AFEEEE45A15EE900A34E7A6
:1018A800F0EE675AFEEEE45A15EE901A6EE7F0EE87
:1018B800675AFEEEE45A15EE900A3AE7F0EE675AD8
:1018C800FEEEE45A15EE900A4BE767EEA57AFDEEB8
:1018D800E77A17EE900A00B232E567EEA57AFDEED8
:1018E800E77A17EE900A00B23FE5F0EE675AFEEE8F
:1018F800E05A15EE901A4CE6F0EE675AFEEEE05A02
:1019080015EE900A30E6F0EE675AFEEEE05A15EE54
:10191800900AFDE5F0EE675AFEEEE05A15EE900AE1
:101928000AE667EEA57AFDEEE77A17EE901A09B295
:101938004AE567EEA57AFDEEE77A17EE900A00B25F
:101948002CE5F0EE675AFEEEE45A15EE902A1FE4F5
:1019580067EEA57AFDEEE77A17EE902A12B2FFF746
:1019680031BBF0EE675AFEEEE45A15EE902AFFF707
:10197800FDBBF0EE675AFEEEE05A15EE902AFFF72F
:101988009BBBF0EE675AFEEEE05A15EE902AFFF781
:1019980080BB67EEA57AFDEEE77A17EE902A12B2C1
:1019A800FFF724BB82FF7F000000003000000038F2
:1019B8007E0080FF30B5184C154685B0046004F1F0
:1019C800080EEC460FC98EE80F00D4ED047AF5EE48
:1019D800C07A8CE80F00F1EE10FA1ADDB7EE006A53
:1019E80094ED057A27EE277AC6EE276A84ED0D7AFC
:1019F800C4ED0C6A6DB1204640F8185F01F0CCF9CF
:101A0800064903690020064A2162A262E36005B024
:101A180030BD012005B030BD140400240020003082
:101A28000000003000680830704700BFB1F5807FC3
:101A380003680A4628BF4FF48072B1F5807F9A6028
:101A480094BF0020012070470068183001F004BAE4
:101A580070B504688AB0A369E160CBB104F11805D8
:101A6800284601F099F98446EE46E668BCE80F007E
:101A7800AEE80F00BCE80F00AEE80F009CE80300DA
:101A88008EE8030069462846049601F08DF8F8B9F7
:101A9800E069D8B104F11C05284601F07DF98446B7
:101AA800EE46E468BCE80F00AEE80F00BCE80F00A3
:101AB800AEE80F009CE803008EE80300694628465C
:101AC800049401F071F8003818BF01200AB070BD05
:101AD80001200AB070BD00BF30B5046883B00D4660
:101AE800E3694BB1A3680020E26A616A9B00009039
:101AF80004F11C0001F052F9A3680748A26A9B0090
:101B0800216A009004F1180001F048F90020C4E9A6
:101B1800005003B030BD00BF010E000810B4074BE1
:101B28004FF07E5130240022032019619C60D86058
:101B38005DF8044B5961C3E9062270471404002478
:101B48008378022B30B504468FB037D0032B33D0BF
:101B5800012B31D000230A93E378012B2AD0022BE2
:101B680028D000230B93002320460C9301F02CFD72
:101B78000546204601F030FD23780990082B13D83C
:101B8800DFE803F01F3245586B7E91A40500594BDE
:101B9800D3F8E02042F48072C3F8E020D3F8E030B4
:101BA80003F480730893089B09A9284602F0D4FE21
:101BB8000FB030BD0B93D6E70A93CDE711230A93F4
:101BC800CAE74C4B09A92846D3F8E02042F00102A5
:101BD800C3F8E020D3F8E03003F001030093009B42
:101BE80002F0BAFE0FB030BD424B09A92846D3F81F
:101BF800E02042F00202C3F8E020D3F8E03003F01E
:101C080002030193019B02F0A7FE0FB030BD394BD0
:101C180009A92846D3F8E02042F00402C3F8E020DE
:101C2800D3F8E03003F004030293029B02F094FE21
:101C38000FB030BD2F4B09A92846D3F8E02042F059
:101C48000802C3F8E020D3F8E03003F00803039358
:101C5800039B02F081FE0FB030BD264B09A9284630
:101C6800D3F8E02042F01002C3F8E020D3F8E030C7
:101C780003F010030493049B02F06EFE0FB030BD16
:101C88001C4B09A92846D3F8E02042F02002C3F8EB
:101C9800E020D3F8E03003F020030593059B02F021
:101CA8005BFE0FB030BD134B09A92846D3F8E020DE
:101CB80042F04002C3F8E020D3F8E03003F04003DC
:101CC8000693069B02F048FE0FB030BD094B09A9E8
:101CD8002846D3F8E02042F08002C3F8E020D3F889
:101CE800E03003F080030793079B02F035FE0FB046
:101CF80030BD00BF0044025838B5054601F064FC09
:101D08000446284601F068FC01462046BDE83840F4
:101D180003F02AB870B506460D4601F055FC044696
:101D2800304601F059FC2A1E0146204618BF012200
:101D3800BDE8704003F01EB80023122270B586B0CB
:101D4800CDE9022304930368032B01D804230593E8
:101D5800061D841D304601F037FC0546304601F06B
:101D68003BFC034601A92846019302F0F5FD2046F5
:101D780001F02AFC034620461C4601F02DFC01A96F
:101D880003462046019302F0E7FD06B070BD00BF90
:101D9800634A0368934210B58CB028D0614A9342D5
:101DA80058D0614A934200F09480604A934201D02F
:101DB8000CB010BD5E4C5F48D4F8E03043F002032D
:101DC800C4F8E030D4F8E03003F002030A930A9B29
:101DD800FFF7B2FFD4F8F43043F08003C4F8F430CE
:101DE800D4F8F43003F080030B930B9BE0E7504CDE
:101DF8005148D4F8E03043F00203C4F8E030D4F896
:101E0800E03003F002030193019BFFF795FFD4F83C
:101E1800E83000221F2043F400131146C4F8E830CC
:101E2800D4F8E83003F400130293029BD4F8D830B6
:101E380043F00103C4F8D830D4F8D83003F00103D4
:101E48000393039B01F00CFD1F200CB0BDE810406C
:101E580001F044BD364C3948D4F8E03043F08003F3
:101E6800C4F8E030D4F8E03003F080030493049B16
:101E7800D4F8E03043F00203C4F8E030D4F8E0309E
:101E880003F002030593059BFFF756FFD4F8E830EB
:101E98000022212043F480031146C4F8E830D4F826
:101EA800E83003F480030693069BD4F8D83043F057
:101EB8000103C4F8D830D4F8D83003F001030793ED
:101EC800079B01F0CDFC21200CB0BDE8104001F0CB
:101ED80005BD1B48FFF730FF154B00224820D3F8FB
:101EE800E840114644F40004C3F8E840D3F8E84059
:101EF80004F400040894089CD3F8D84044F0010482
:101F0800C3F8D840D3F8D83003F001030993099BEC
:101F180001F0A6FC48200CB0BDE8104001F0DEBC82
:101F28000054004000580040005C0040001C00586D
:101F380000440258D8060024500400242805002430
:101F4800000600242DE9F0431A4B87B000254FF016
:101F580010099E46EC46184BFF22E04667461A7069
:101F68000EF118060EF13004CDE90055CDE9025501
:101F7800ADF80090BCE80F00CDE90455AEE80F00BD
:101F88009CE803000095ADF800908EE80300B8E8DF
:101F98000F000FC69CE803000095ADF8009086E896
:101FA80003000FCF0FC49CE8030084E8030007B0C8
:101FB800BDE8F083040000244C04002410B5EFF3BE
:101FC800108472B6084B1A78120602D504B962B6A4
:101FD80010BD1B78D82205485BB202FB0300143001
:101FE80002F068F9F2E700BF4C0400245004002412
:101FF800014803F057BD00BFDC040024014803F08A
:1020080051BD00BFB4050024014803F04BBD00BF1B
:102018008C0600242DE9F0430F68D8243F4D85B085
:1020280007FB04F4032F05EB0403036040DCCB68D3
:102038000E46012B3CD84DD04FF0D808B646DFF8F5
:10204800FC9008FB0758BEE80F00C446ACE80F0038
:10205800DEF800300DF1100ECCF80030D8F808C0CA
:1020680099E80F000EE90F000EEB8703BCF1010F92
:1020780053F8103CC8F88C3031D0BCF1020F42D074
:10208800BCF1000F35D0317C8C34D82300220120DC
:102098002C4403FB07534900C3E92602C3F89410F4
:1020A8002046C3E92822C3E92A2203F0EDFA18B131
:1020B800012005B0BDE8F0830146204603F0FEFC90
:1020C8000028F5D10146204603F022FD003818BF4C
:1020D8000120EEE70B7C103B672BADD9E8E701F058
:1020E800EDF80F4B98420CBF0E4B0F4BC8F89030D1
:1020F800C9E701F0E3F80A4B98420CBF0B4B0C4BB5
:10210800C8F89030BFE701F0D9F8054B98420CBFEA
:10211800084B094BC8F89030B5E700BF50040024BD
:10212800000E27072D0FB0303211D0205F4390608A
:102138008A62E030200BA0101A09801024F30008EE
:102148002DE9F041D0F8008082B00D4617461E46B2
:1021580008F18C04204603F0ADFC2028FAD1D8F809
:102168000C3073B96D002046089C33463A46A9B234
:10217800009403F0DFFA003818BF012002B0BDE870
:10218800F081089B32463946204603F0A7FBF2E768
:10219800044B10221A7483F8E82083F8C02183F8CE
:1021A800982270475004002430B5002395B04FF4AE
:1021B8008071062204460B9306921393CDE90C1303
:1021C800CDE90E33CDE9113301F07AF807282BD089
:1021D80004F1100541F2883206A9284604F0AAFA4B
:1021E80028B10123184684F85C3015B030BD0222AE
:1021F800022306A92846CDE9002310220123CDE9B0
:10220800022300224FF48003CDE9042305224FF076
:10221800807306926A460F9341F2883304F0F6FB06
:102228000028DED115B030BD0323012084F85C30CE
:1022380015B030BD0000000070B50023A4B04FF009
:1022480080724FF480750446ADF806300D93CDE9E1
:1022580010320122CDE90E53CDE91223CDE9143312
:10226800002943D0F02300F1100508AEADF8063080
:10227800C02341F2883231462846089304F05AFABE
:1022880028B10123184684F85C3024B070BD41F2AF
:1022980088320DF10601284604F0B6FA03460028F4
:1022A800EFD105224FF480711E93284616924FF005
:1022B80080721B9321931F9202AA9FED1F7BCDE989
:1022C8001C13CDE922338DED027B9FED1D7B41F27E
:1022D800883316A98DED047B9FED1B7B8DED067B66
:1022E80004F094FB0028CCD124B070BD00F1100597
:1022F80008AE612341F2883231462846089304F03B
:1023080019FA0028BDD141F288320DF1060128469C
:1023180004F0F8FA0028B4D1BDF80630204623F0BE
:10232800780343F04003ADF80630FFF73DFF00287F
:102338009ED0A6E7AFF30080000000000100000077
:102348001000000001000000000000000000400034
:102358002DE9F04F00234FF4807501264FF0807867
:1023680004462DED028BABB08DF807301393219303
:10237800299314950E96CDF85C80CDE91533CDE9F7
:102388001863CDE91A33CDE92253CDE92433CDE9D9
:10239800273306231C9300F093FF072808D004F185
:1023A800100741F288321CA9384604F0C3F940B13D
:1023B8000123184684F85C302BB0BDEC028BBDE8D5
:1023C800F08F4FF0020A4FF0020B4FF0050941F26F
:1023D800883308AA1CA93846CDF89480CDF87090A7
:1023E8009FED2D8BCDE908AB4FF0000A4FF4800B21
:1023F8008DED0A8BCDE90CAB04F008FB0028D7D192
:1024080041F2883238460EA904F094F90028CFD159
:10241800402341F288320DF1070138468DF8073024
:1024280004F0F2F90028C3D141F288330EA902AAB8
:102438003846CDF83890CDF85C809FED197B8DED4E
:10244800048BCDE906AB8DED027B04F0DFFA034681
:102458000028ADD1CDF870904FF00109CDF89480E7
:102468004FF00008219308AA29931CA93846229501
:10247800CDE92333CDE9273341F288338DED0A8B3B
:10248800CDE90CABCDE9088904F0C0FA002893D057
:10249800304684F85C608FE71000000001000000FF
:1024A80040000000400000002DE9F043624CA3B05A
:1024B8000D46046000F004FF072800F0A980286892
:1024C80023466968AA6807C31E46AB8926F8043BF9
:1024D8003046257B677B04F00FF9E0B9574B012D97
:1024E8004FF00108E061236114BF4FF480134FF4EB
:1024F8000003C4E9058893FAA3F3B3FA83F34FF40E
:102508008079013BC4F82490C4E90B00304623626B
:1025180004F086F838B10122134684F85C20184686
:1025280023B0BDE8F08366230B90139041F2883204
:1025380006A90693CDE90C90CDE90E00CDE911006E
:10254800304604F0F7F80028E5D1992341F28832A3
:1025580006A93046069304F0EDF80028DBD10523E0
:102568001C9019906A4614934FF08073219014A917
:102578001D9341F288339FED2A7BCDE91A90CDE96E
:102588001F008DED007B9FED287B30468DED027B93
:102598009FED277B8DED047B04F038FA0028BAD133
:1025A80029462046FFF748FE0028B4D12046FFF709
:1025B800CFFE03460028AED1002FB0D11893304685
:1025C8000027002606AA14A9CDF86890CDE91F3384
:1025D800EB2314934FF440631B934FF4005317936A
:1025E8004FF440431C93A0231693062319934FF0EE
:1025F800805321934FF04073CDE906671D9304F093
:102608007DFA034600288AD0434684F85C8086E732
:1026180001230322184684F85C2023B0BDE8F08328
:102628000000000001000000100000000100000090
:102638000000000000004000B007002400500052D5
:102648002DE9F04F8FB0414B0024026800AF9A4249
:102658007C63C7E90944C7E90B4403D03C37BD464E
:10266800BDE8F08F3A4B40F609213A48EB46D3F8DB
:10267800D42007F11C0607F1220A4FF0020942F4A0
:1026880080424FF00308C3F8D420D3F8D42002F4D2
:102698008042BA60BA68D3F8E02042F04002C3F83A
:1026A800E020D3F8E02002F04002FA60FA68D3F89C
:1026B800E02042F02002C3F8E020D3F8E02002F046
:1026C80020023A613A69D3F8E02042F01002C3F8D8
:1026D800E020D3F8E02002F010027A617A69D3F89A
:1026E800E02042F00202C3F8E020D3F8E030F861BD
:1026F80003F002033984BB61174B7B60BB697B68BD
:1027080053F8040F7B6000F05FFF7B68054618688C
:1027180000F062FF16F8013B786207F124012846B1
:10272800C7F830807B63C7E90A9402F015F956456B
:10273800E5D100225C20114601F092F85C2001F0FE
:10274800CDF83C37DD46BD46BDE8F08F005000525D
:10275800004402580A0A09090C080024114B0268AF
:102768009A4200D07047104A70B5D2F8D4300F4C56
:1027780023F4804304F11806C2F8D43054F8040F47
:1027880000F022FF0546206800F026FF0146284693
:1027980002F022FAB442F1D15C20BDE8704001F0A9
:1027A800ABB800BF00500052004402580C08002487
:1027B800014804F02FBA00BFC0070024084B1A1DB7
:1027C800981D03F1080110B49C1C9A6603F10A02D3
:1027D800C3E91834C3E91B015DF8044B5A67704715
:1027E800B007002438B5036871B9026A00F12805FA
:1027F80000F5AC74012A0CBF002140218BBB1D4B96
:102808005722C0F858310DE0426A00F1C00500F5C2
:10281800E874012A0CBF00214021EBB1164B5A2263
:10282800C0F8D03100232046C4E901214FF480527A
:102838004FF48061636262614FF48042C4E90331FE
:102848004FF48073C4E906234FF40033236201F088
:10285800B9F958B1FFBEFEE7084B5822C0F8D0318D
:10286800E0E7074B5922C0F85831DBE7C5E92044B7
:10287800A56338BD100002407000024028000240E5
:10288800580002402DE9F043821D05468BB0031D18
:1028980005F10A010830CDE9052305F10C02AB6901
:1028A800CDE907010992002B3DD0EB69B3FA83F813
:1028B8004FEA58180123022205AE0AAF4FF0060965
:1028C8000393CDE9012356F8044B2B7922789342E0
:1028D80016D02B68F3B1012B02D1F2B10A2304936D
:1028E800204600F079FE03462046009300F06CFE77
:1028F800694602F031F8BE42E5D10BB0BDE8F0837D
:10290800697963789942E4D1B8F1000FF3D02B6864
:10291800002BE0D1CDF81090E2E76378022B14BFCA
:102928000A230823DBE74FF00108C3E7534A03688B
:10293800934230B505468BB055D02032934252D0E1
:102948004F4A934204D02032934201D00BB030BD9D
:102958004C4C4D48D4F8E03043F00103C4F8E03063
:10296800D4F8E03003F001030593059BD4F8E03078
:1029780043F00803C4F8E030D4F8E03003F008036B
:102988000693069BD4F8E03043F04003C4F8E030E7
:10299800D4F8E03003F040030793079BD4F8F030F5
:1029A80043F40003C4F8F030D4F8F03003F4000323
:1029B8000893089BFFF766FFD4F8D830296843F0DE
:1029C80001032F4A3048C4F8D830891AD4F8D830CF
:1029D80018BF012103F001030993099B0BB0BDE85F
:1029E8003040FFF7FFBE274C2848D4F8E03043F0CA
:1029F8000103C4F8E030D4F8E03003F00103009399
:102A0800009BD4F8E03043F01003C4F8E030D4F869
:102A1800E03003F010030193019BD4F8E03043F059
:102A28004003C4F8E030D4F8E03003F040030293E8
:102A3800029BD4F8F03043F48003C4F8F030D4F8A3
:102A4800F03003F480030393039BFFF71BFFD4F8D4
:102A5800D830296843F00103084A0C48C4F8D83034
:102A6800891AD4F8D83018BF012103F00103049360
:102A7800049B0BB0BDE83040FFF7B4BE04580140DA
:102A8800045C014000440258840A002428080024F9
:102A9800014801F00FBC00BF80090024014801F083
:102AA80009BC00BFF8090024014801F003BC00BFBD
:102AB800DC0B0024014801F0FDBB00BF540C0024CE
:102AC8001A4A0368934210B40BD02032934208D0BC
:102AD800174A934216D02032934213D05DF8044B24
:102AE8007047144B0022D3F85442C3F85822002CE4
:102AF800F4D0D3F84802D3E9931223465DF8044B87
:102B0800520818470B4B0022D3F8B044C3F8B4243A
:102B1800002CE3D0D3F8AC24D3F8A814D3F8A40439
:102B2800520823465DF8044B184700BF045801407B
:102B3800045C014028080024184A0368934210B432
:102B48000BD02032934208D0154A934217D0203236
:102B5800934214D05DF8044B7047124BD3E9942488
:102B68005208C3F85822002CF4D0D3E99201234626
:102B780001EB820100EB82005DF8044B1847094B1A
:102B8800D3F8AC24D3F8B0445208C3F8B424002CCA
:102B9800E0D0D3F8A814D3F8A404E8E70458014017
:102BA800045C0140280800242DE9F04F0C684FF41C
:102BB8001776754F87B004FB06F6012C07EB060A5B
:102BC800C0F800A000F3A0800D468E464FF0000824
:102BD800D44669A3D3E9002369A1D1E90001CDE96D
:102BE800022306ABCAF8508203EB8403CDE9040143
:102BF80053F810BC53F8083CCAE992880193BEE820
:102C08000F00ACE80F00BEE80F00ACE80F00019B16
:102C18009EE80300CAF828B0CAF8C0308CE8030060
:102C28002B69042B0CD8DFE803F0737D8791030030
:102C38004FF41773554A03FB04739A64C3F8E020F2
:102C4800AA692B6A002A43D0002B4FF4177308BFD8
:102C5800022203FB047318BF0322DA6201221A63FB
:102C6800EA696B6A002A40D1191E4FF4177318BF1E
:102C7800012103FB0473C3E931126B69022B05D8E8
:102C8800434A12F80380434A52F823904FF41773CB
:102C980006F128004246494603FB047400233844E1
:102CA80063646363E365C4F8DC30C4F8CC30C4F80B
:102CB800F430C4E90F33C4E91533C4E93533C4E942
:102CC8003B33022306F048F8002849D0FFBEFEE750
:102CD800191E4FF4177318BF012103FB0473C3E9CE
:102CE8000B12EA696B6A002ABED0002B4FF41773E7
:102CF80008BF022203FB047318BF0322C3F8C420D1
:102D08000122C3F8C820B8E7012007B0BDE8F08F5A
:102D18004FF417734FF4FA5203FB04739A64C3F821
:102D2800E0208DE74FF417734FF47A5203FB0473D6
:102D38009A64C3F8E02083E74FF417734FF4FA421C
:102D480003FB04739A64C3F8E02079E74FF4177320
:102D58004BF6803203FB04739A64C3F8E0206FE7F4
:102D680006F1C000022342464946384405F0F4FF04
:102D78000028CAD0FFBEFEE704580140045C0140A9
:102D880024580140245C01402808002400770100F1
:102D980058F300085CF300080068704770B50468D1
:102DA80082B015460E46C4F85032C4E99212069A0B
:102DB800C4F85422A269012A26D0626A012A9AB26A
:102DC80011D0294604F1C000019206F081F8236A67
:102DD800019A012B10D0294604F1280006F078F852
:102DE800002002B070BD04F1C000019206F002F9A3
:102DF800236A019A012BEED1314604F1280006F02E
:102E0800F9F8002002B070BD226A012A9AB211D0E6
:102E1800294604F12800019206F05AF8636A019ADB
:102E2800012B10D0294604F1C00006F051F800200B
:102E380002B070BD04F12800019206F0DBF8636A65
:102E4800019A012BEED1314604F1C00006F0D2F808
:102E5800002002B070BD00BF03681B69042B05D8B1
:102E6800044A02EB830393ED000A70479FED020AC0
:102E7800704700BF68F3000800803B470368D3F839
:102E880058027047704700BF08B500F0ADFCBDE8B8
:102E9800084000F0ADBD00BF064808B503680BB197
:102EA80001F06CFF044803681BB1BDE8084002F05C
:102EB8005BBE08BDF0100024E80C0024064808B5E5
:102EC80003680BB101F05AFF044803681BB1BDE861
:102ED800084002F049BE08BDF0100024E80C0024A8
:102EE800064808B503680BB101F048FF04480368B9
:102EF8001BB1BDE8084002F037BE08BDF010002441
:102F0800E80C0024364BDA6A520062D59A6A9A6A4B
:102F18009A6A9B6A180600D500BE314B9B6A9906CF
:102F280000D500BE2E4B9B6ADA0600D500BE2C4B9E
:102F38009B6A1B0700D500BE294B9B6A980700D5E2
:102F480000BE274B9B6AD90700D500BE244B9B6A5D
:102F58001A0400D500BE224B9B6A9B0400D500BE14
:102F68001F4B9B6AD80400D500BE1D4B9B6A1905F0
:102F780000D500BE1A4B9B6A5A0500D500BE184BF7
:102F88009B6A9B0500D500BE154B9B6AD80500D5EA
:102F980000BE134B9B6A990100D500BE104B9B6A7B
:102FA800DA0100D500BE0E4B9B6A1B0300D500BE9C
:102FB8000B4B9B6A580300D500BE094B9B6A9903CB
:102FC80000D500BE064B9B6ADA0306D400BE00BEDD
:102FD800FEE7DB6A9B07FAD5F8E700BEF6E700BF15
:102FE80000ED00E000F012BC2DE9F041CEB004463F
:102FF8004C2200210AA80CF089F92022002102A8FD
:103008000CF084F9BC2200211EA80CF07FF90220E4
:1030180003F01EFA2368012B4FF0000354D0534AE3
:1030280002250193C820D16A514B21F00101D162D8
:10303800D26A02F0010201929A6942F440429A610E
:103048009B6903F440430193019B494A93699B049C
:10305800FCD548490224002201268B6A04274FF038
:10306800080823F0030323438B62052316900AA85C
:1030780018934FF480331096179419941597CDF838
:103088006880CDE91B222122CDE91344CDE90A232A
:1030980003F0C8FE00B1FEE73F220323294602A839
:1030A800CDE9022300220823CDE90423402240234E
:1030B800CDE9062340234FF48062CDE9082304F0CC
:1030C800DFF90346B8B1FEE7294A04250093F0204A
:1030D8009169264B41F440419161926902F4404262
:1030E8000092DA6A42F00102DA62DB6A03F0010355
:1030F8000093009BA9E720224FF4805125934FF4B9
:1031080040152B9280222D931EA83093269135913D
:103118004FF48071249234920C223394439140F2FC
:10312800271120921022CDF884802A971F96CDE986
:103138002E34CDE93B334FF48033CDE92246319329
:10314800002446930623CDE93E4527934FF4806338
:10315800094C2C931E94CDE9281204F0EDFB00B124
:10316800FEE703F09BF94EB0BDE8F081000400587B
:1031780000480258004402580F130F032DE9F0418C
:103188000D46044684B0D1E9000184E8030000F04C
:10319800FBFAAE79002E37D06F4609F06FFAFEF7CA
:1031A800D1FE07F03BFF08F0F3FF2B79002B54D139
:1031B8006B799BB1BFF34F8FBFF36F8F3C4B0022EE
:1031C800C3F85022BFF34F8FBFF36F8F5A6942F491
:1031D80000325A61BFF34F8FBFF36F8F4FF0FF324A
:1031E8000023002400253946324802928DF80C301D
:1031F800CDE9004508F032FB2E4808F097FB07F0B0
:103208003DFB04B0BDE8F08120466F46FFF7ECFEB9
:10321800012400F09BFB4FF040534FF48078384670
:103228000193254BADF80040CDE9023800F0ACFB26
:1032380019224FF0404338468DF80F40ADF80D8005
:103248008DF801408DF80A608DF80820019300F090
:103258009BFB042000F088FB9FE7154C0023C4F873
:103268008430BFF34F8FD4F8803043F6E07EC3F349
:10327800C906C3F34E334FEA431C0CEA0E0033462B
:1032880040EA8372013BC4F860225A1CF8D1ACF1C1
:10329800200C1CF1200FF0D1BFF34F8F636943F46A
:1032A80080336361BFF34F8FBFF36F8F80E700BF39
:1032B80000ED00E0E00C00240E00010304F010BA59
:1032C8001C4B9B6803F17842B2F5003F25D3B3F558
:1032D800803F20D303F16042B2F5003F1FD303F1D2
:1032E8005C42B2F5002F1CD303F17042B2F5902F67
:1032F80019D303F14842B2F5803F16D303F1804257
:10330800B2F1806F13D303F1E043B3F5000F2CBF84
:1033180008200720704701207047002070470220CE
:103328007047032070470420704705207047062027
:10333800704700BF00ED00E003480023034A04493A
:1033480003600BF09DBF00BFE00C002400000024C8
:103358008D2E000810B4204C0022204B83B0D4F8E6
:1033680088101F4841F47001C4F8881019681D4C72
:1033780041F0010119601A61196808401A4918607A
:103388009A61DA611A629A62DA621A635A639A6314
:10339800DA631A645A64186820F4802018601A6680
:1033A800D3F8DC2042F06042C3F8DC20D3F8DC30EC
:1033B8000193019B23681940B1F1005F03D20B4BC5
:1033C8000122C3F80821044B4FF000629A6003B051
:1033D8005DF8044B704700BF00ED00E00044025860
:1033E8007FEDF6EA0010005C0000FFFF008000514E
:1033F80000F57171D0F8040406F028BEC1EBC103D2
:1034080000EB8303D0F80404D3F8082206F04CBE7E
:10341800C1EBC10300EB8303D0F804049A6C06F0F7
:1034280081BE00BFD0F8040406F020BFC16810B503
:10343800044619B1022900D0FEE70121D4F804049A
:1034480006F0FEFED4F80404BDE8104006F0D0BE35
:1034580010B50446D0F8040406F0F6FE2268D2F847
:10346800003E43F00103C2F8003E236A23B1034A39
:10347800136943F00603136110BD00BF00ED00E0BF
:10348800D0F8040406F0EABED0F8040406F0FEBE44
:10349800D0F8040406F0F8BED0F8040406F0F8BE2C
:1034A800D0F8040406F0F6BE9446D0F898021A46FE
:1034B80008B5634602F0BCFE032802D8024B185C2C
:1034C80008BD022008BD00BF8CF30008D0F89802A0
:1034D80008B502F03BFF032802D8024B185C08BD70
:1034E800022008BD8CF30008D0F8980208B502F055
:1034F80071FF032802D8024B185C08BD022008BDE2
:103508008CF300080A06D0F8983206D4C1EBC10142
:1035180003EB810191F8FE01704701F07F01C1EBD7
:10352800C10103EB810191F83E007047D0F8980281
:1035380008B502F067FE032802D8024B185C08BDE4
:10354800022008BD8CF30008D0F8980208B502F0F4
:10355800D5FE032802D8024B185C08BD022008BD1E
:103568008CF30008D0F8980208B502F09FFE0328F3
:1035780002D8024B185C08BD022008BD8CF3000875
:10358800D0F8C00207F034B9D0F8C00207F048B943
:10359800D0F8C00207F050B9704700BFD0F8C00299
:1035A80007F036B9D0F8C00207F036B9D0F8D00322
:1035B80008B501F0A3FF032802D8024B185C08BD28
:1035C800022008BD90F30008024B027853F822004D
:1035D800704700BFB4F30008024B427833F812007A
:1035E800704700BF94F300088CB00A2814D8DFE8AD
:1035F80000F01523313F4D5B6977859306004D4BED
:10360800D3F8E02042F48062C3F8E020D3F8E03039
:1036180003F480630B930B9B0CB07047454BD3F8B6
:10362800E02042F00102C3F8E020D3F8E03003F0D4
:1036380001030193019BEFE73E4BD3F8E02042F0F2
:103648000202C3F8E020D3F8E03003F0020302934B
:10365800029BE1E7374BD3F8E02042F00402C3F8BD
:10366800E020D3F8E03003F004030393039BD3E78F
:10367800304BD3F8E02042F00802C3F8E020D3F83A
:10368800E03003F008030493049BC5E7294BD3F803
:10369800E02042F01002C3F8E020D3F8E03003F055
:1036A80010030593059BB7E7224BD3F8E02042F0BF
:1036B8002002C3F8E020D3F8E03003F0200306939B
:1036C800069BA9E71B4BD3F8E02042F04002C3F861
:1036D800E020D3F8E03003F040030793079B9BE713
:1036E800144BD3F8E02042F08002C3F8E020D3F86E
:1036F800E03003F080030893089B8DE70D4BD3F867
:10370800E02042F48072C3F8E020D3F8E03003F4FC
:1037180080730993099B7FE7064BD3F8E02042F4B6
:103728000072C3F8E020D3F8E03003F400730A9382
:103738000A9B71E700440258704700BF0F4B1B7883
:103748000BB90120704710B504464FF47A700C4A43
:10375800B0FBF3F31068B0FBF3F000F0E1F80F2CC6
:1037680000D808B1012010BD002221464FF0FF30DB
:1037780000F076F8034B00201C6010BD54000024B4
:103788004C0000245800002438B50320124D00F0E6
:1037980055F8124C03F0D4FD114A12499369C3F34A
:1037A8000323CB5C03F01F0320FA03F30E202B60E6
:1037B800926902F00F028A5C02F01F02D340236074
:1037C800FFF7BCFF10B10124204638BD0446FFF7BF
:1037D800B3FF204638BD00BF4C0000245000002431
:1037E800004402587CF30008034A044B11681B7814
:1037F8000B441360704700BFB41300245400002426
:10380800014B1868704700BFB413002438B504464C
:10381800FFF7F6FF0546631C02D0044B1B781C44D7
:10382800FFF7EEFF431BA342FAD338BD5400002430
:10383800014B1868000C70470010005C06494FF6F1
:10384800FF0C0002054BCA6800F4E06002EA0C02B3
:1038580010430343CB60704700ED00E00000FA0519
:103868001B4BDB68C3F3022300B5C3F1070E03F15A
:10387800040CBEF1040F28BF4FF0040EBCF1060F74
:103888001AD9033B4FF0FF3C0CFA03FC22EA0C0266
:103898004FF0FF3C00280CFA0EFC21EA0C0101FA5B
:1038A80003F141EA02010ADB09010A4BC9B20344E8
:1038B80083F800135DF804FB00221346E8E700F0E4
:1038C8000F000901044BC9B2034419765DF804FBE3
:1038D80000ED00E000E100E0FCEC00E0002807DB80
:1038E80000F01F0101234009024A8B4042F82030B2
:1038F800704700BF00E100E000280DDB430901220A
:1039080000F01F000549203302FA00F041F82300B7
:10391800BFF34F8FBFF36F8F704700BF00E100E028
:10392800431EB3F1807F0CD24FF0E02200200649FD
:103938004FF0F00C5361072381F823C090611361A5
:1039480070470120704700BF00ED00E0BFF35F8FB4
:10395800044B00215A6A22F480325A62C3F8941048
:10396800704700BF00ED00E0064B40F00100C3F8CF
:1039780094005A6A42F480325A62BFF34F8FBFF301
:103988006F8F704700ED00E0174A4378C2F898300F
:10399800017821B3436800B5C2F89C30C37A90F827
:1039A8000CC01B0690F80FE043EA0C7390F80AC0AD
:1039B8000B43817B43EACC4390F80DC043EA8C4328
:1039C80090F809C043EA4143017A43EA0E4343EAC7
:1039D8000C2343EA4103C2F8A0305DF804FBC2F8A7
:1039E8009C10C2F8A010704700ED00E0704700BFBF
:1039F80008B5FFF7FBFF08BD0268344B344930B403
:103A0800344D354CAA4218BF9A420CBF01230023FB
:103A18008A4208BF43F001033031A24208BF43F095
:103A2800010330348A4208BF43F001033031A24217
:103A380008BF43F0010330348A4208BF43F0010352
:103A480001F55C71A24208BF43F0010304F55C7400
:103A58008A4208BF43F001033031A24208BF43F055
:103A6800010330348A4208BF43F001033031A242D7
:103A780008BF43F0010330348A4208BF43F0010312
:103A88003031A24208BF43F001038A4208BF43F025
:103A9800010313B9114B9A4213D1D3B21049114CF7
:103AA800103BA1FB03515F2B0F4BC1F3021103EA3B
:103AB8000203615C88BF0433C1658365184630BC66
:103AC800704722F0FF038365F8E700BF100002404B
:103AD800400002402800024058000240B80402405A
:103AE800ABAAAAAAE4F3000800FCFFFF0368294A6E
:103AF800294930B4294D2A4CAB4218BF93420CBF18
:103B0800012200228B4208BF42F001022831A34261
:103B180008BF42F0010228348B4208BF42F001027C
:103B28002831A34208BF42F001028B4208BF42F08D
:103B3800010212B91B4A934213D1DBB21A4C1B4A39
:103B48000121083B1A4DA4FB0343456602EB1312FF
:103B5800C3F30413920001FA03F30266836630BCD0
:103B68007047DAB21349144C1944103AA829A4FB37
:103B780002234FEA131300D80833104A03F01F0535
:103B880001210F4C1A44A9404466920081660266DE
:103B9800E5E700BF08540258305402581C54025834
:103BA8004454025894540258CDCCCCCC00960016FC
:103BB80080580258F0FBFDBFABAAAAAA00820010E9
:103BC8008008024070B50446FFF71AFE002C00F08A
:103BD800C68023680546954A934248D018329342D6
:103BE80045D0303292498B4218BF934201F13001DF
:103BF8000CBF012200228B4208BF42F0010218319B
:103C08008B4208BF42F0010218318B4208BF42F0D4
:103C1800010218318B4208BF42F0010201F55671CA
:103C28008B4208BF42F0010218318B4208BF42F0B4
:103C3800010218318B4208BF42F0010218318B4251
:103C480008BF42F0010218318B4208BF42F001025E
:103C580018318B4208BF42F0010218318B4208BF6D
:103C680042F001021AB9734A934240F0F5800222E9
:103C7800002184F8352084F834101A6822F00102F3
:103C88001A6005E0FFF7BCFD431B052B40D82368ED
:103C98001A68D107F6D4D4E9022521692A43A06914
:103CA8001D680A4361690A43E16902430A4362499C
:103CB8002940256A2A430A43616A04292FD01A60D9
:103CC8005A6922F00702114359612046FFF794FE12
:103CD800E26D3F2302F01F02934083602046FFF706
:103CE80005FFA368802B3CD06368A06EDAB2013B65
:103CF800D4E91851072B2A60486026D90023C4E963
:103D08001B33636700200123606584F8353070BD7C
:103D1800202203230120626584F8353070BDD4E980
:103D28000B5129430A431A605969A26A21F0070115
:103D3800114341F00401002DC6D000284FD1012ABB
:103D48006ED032F00202BFD151E0501E072810D9C0
:103D5800626FD4E91B31002018604A60D2E7012065
:103D680070BD0023A16ED4E918026360036051603E
:103D7800C4E72168314B324DA94218BF994205F179
:103D880014050CBF01230023A94208BF43F0010317
:103D98001435A94208BF43F001031435A94208BFEE
:103DA80043F001031435A94208BF43F00103143559
:103DB800A94208BF43F001033BB9224B994204D002
:103DC800214B224913449B0003E0214B2149134412
:103DD8009B0001228240C4E91B316267BBE7B0F552
:103DE800005F0ED0022A05D9032A7FF46DAFEA01DD
:103DF8007FF56AAF012340221846626584F83530A2
:103E080070BD032A3FF660AF01A050F822F000BF52
:103E1800FD3D0008F73D0008FD3D0008293E00086B
:103E2800B5F1C07F7FF450AFE4E700BF1000024057
:103E380040000240B80402403F8010FE0854025877
:103E48001C540258945402583F8200104009024002
:103E58003F96001640590258324A33483349834244
:103E680018BF934200F128000CBF012200228B42A8
:103E780008BF42F001022831834208BF42F0010224
:103E880028308B4208BF42F001022831834208BF24
:103E980042F001028B4208BF42F0010212B9244AE3
:103EA800934238D102220021224D84F8341084F83C
:103EB80035201A681540A268402A2AD0802A0CBFEB
:103EC8004FF480400846266AD4E90312D20842EA31
:103ED800D102616942EAD102A16942EAD102E169EB
:103EE80042EAD102144942EA161219442A4302430B
:103EF8001248A0FB010120461A600B099B00E365EC
:103F0800FFF77AFDE26D012302F01F029340436040
:103F1800E4E61020D7E7402203230120626584F8F5
:103F2800353070BD085402581C5402583054025899
:103F3800945402580F00FEFFF8ABFDA7CDCCCCCCB3
:103F4800002800F0BC80844690F83400012800F076
:103F5800B88001202DE9F0419CF835408CF83400F8
:103F6800844208D000224FF400638CF83420CCF847
:103F78005430BDE8F0810220DCF800507A4C8CF80F
:103F880035000020794ECCF854007948854218BF96
:103F9800A54200F118000CBF01240024854208BF87
:103FA80044F001041830854208BF44F00104183079
:103FB800854208BF44F001041830854208BF44F028
:103FC800010400F55670854208BF44F0010418301A
:103FD800854208BF44F001041830854208BF44F008
:103FE80001041830854208BF44F0010418308542A6
:103FF80008BF44F001041830854208BF44F00104AA
:104008001830854208BF44F001041830854208BFC3
:1040180044F00104A0F59560B54218BF8542DCF86C
:104028006C600CBF0120002054EA0008286820F0CA
:1040380001002860DCF86400DCF86840DCF858709F
:10404800446040D016B1DCE91C044460DCF85C0034
:104058004FF03F0E00F01F000EFA00F0B86028681D
:1040680020F4802028606B60DCF80830402B23D0D7
:10407800A960EA602B6823F01E0343F016032B6047
:10408800DCF840301BB12B6843F008032B60DCF8E8
:1040980060301A68D20303D51A6842F480721A6035
:1040A8001EB1336843F4807333602B68002043F0FB
:1040B80001032B60BDE8F081AA60E960DAE701201E
:1040C80070470220704716B1DCE91C044460294897
:1040D800DFF8A8E0754518BF85420EF1140E0CBF35
:1040E80001200020754508BF40F001000EF1140EB4
:1040F800754508BF40F001000EF1140E754508BF64
:1041080040F001000EF1140E754508BF40F00100A3
:104118000EF1140E754508BF40F0010010B916489D
:1041280085420ED1DCF85C0000F01F0E012000FA79
:104138000EF078606B60DCF80830402B10D0A96076
:10414800EA602B6823F00E0343F00A032B60DCF8C7
:104158004030002B9BD02B6843F004032B6096E77C
:10416800AA60E960EDE700BF400002402800024075
:104178005800024008540258945402581C540258DB
:1041880000285FD038B590F835200346022A55D16B
:104198000168444A914248D01832914245D03032A1
:1041A800414C4248A14218BF914204F148040CBF57
:1041B80001220022814208BF42F001023030A142B0
:1041C80008BF42F001023034814208BF42F00102C8
:1041D80000F55C70A14208BF42F0010204F55C746E
:1041E800814208BF42F001023030A14208BF42F0CC
:1041F80001023034814208BF42F001023030A1424E
:1042080008BF42F001023034814208BF42F0010287
:104218003030A14208BF42F00102814208BF42F09B
:10422800010212B9224A91420ED10422002083F8D9
:1042380035200B6823F001030B6038BD8022012074
:104248005A6538BD012070470A681C6E22F00E02BC
:10425800D86D9D6D0A6000F01F000A6822F0010207
:104268000A6001222168824021F4807121606A601D
:10427800DA6ED3E91910486032B11168D3E91C0429
:1042880021F4807111604460002401211A6D83F8C3
:10429800344083F835101AB118469047204638BD87
:1042A800104638BD10000240400002407000024035
:1042B800B80402402DE9F04300229C4B83B09C4E89
:1042C8001D688146019203689A4A846D934218BF1B
:1042D800B342276808BF0126216818BF002645D0C9
:1042E80018329548834218BF934200F118000CBF5A
:1042F80001220022834208BF42F0010218308342A3
:1043080008BF42F001021830834208BF42F00102A0
:104318001830834208BF42F0010200F5567083420C
:1043280008BF42F001021830834208BF42F0010280
:104338001830834208BF42F001021830834208BF98
:1043480042F001021830834208BF42F001021830DF
:10435800834208BF42F001021830834208BF42F08E
:1043680001021AB9754A934240F05082D9F85C109C
:10437800082201F01F0C02FA0CF2174240F0888163
:1043880027FA0CF2D2070CD55A69100609D5012272
:1043980002FA0CF2A260D9F8542042F00202C9F8DD
:1043A80054204FF0040E0EFA0CF038425BD0002E69
:1043B8004FD1634ADFF88081434518BF934208F123
:1043C80018080CBF01220022434508BF42F0010231
:1043D80008F11808434508BF42F0010208F118081F
:1043E800434508BF42F0010208F11808434508BFD9
:1043F80042F0010208F55678434508BF42F0010231
:1044080008F11808434508BF42F0010208F11808EE
:10441800434508BF42F0010208F11808434508BFA8
:1044280042F0010208F11808434508BF42F00102B2
:1044380008F11808434508BF42F0010208F11808BE
:10444800434508BF42F001021AB93C4A934240F082
:1044580019821A68920706D5A060D9F8542042F04C
:104468000402C9F85420102202FA0CFC1CEA070FB7
:104478006CD0002E45D1324A2F4EB34218BF93421A
:1044880006F118060CBF01220022B34208BF42F011
:1044980001021836B34208BF42F001021836B3428F
:1044A80008BF42F001021836B34208BF42F00102C9
:1044B80006F55676B34208BF42F001021836B342F9
:1044C80008BF42F001021836B34208BF42F00102A9
:1044D8001836B34208BF42F001021836B34208BF8B
:1044E80042F001021836B34208BF42F00102183602
:1044F800B34208BF42F001021AB9104A934240F091
:10450800C9811A68100721D5C4F808C01A6856036B
:1045180000F14C811A68D20503D41A6822F0080207
:104528001A60D9F840308BB10CE000BF4C00002471
:10453800100002402800024058000240B80402401F
:104548004000024048469847D9F85C1001F01F0126
:1045580020268E403E4268D0D9F80020A54BA64FB1
:10456800BA4218BF9A4207F118070CBF012300236B
:10457800BA4208BF43F001031837BA4208BF43F0F4
:1045880001031837BA4208BF43F001031837BA428B
:1045980008BF43F001031837BA4208BF43F00103CC
:1045A8001837BA4208BF43F0010307F55677BA42F5
:1045B80008BF43F001031837BA4208BF43F00103AC
:1045C8001837BA4208BF43F001031837BA4208BF88
:1045D80043F001031837BA4208BF43F00103183704
:1045E800BA4208BF43F001031837BA4208BF43F084
:1045F80001031BB9814B9A4240F062811368DB06C4
:1046080013D5A66099F83530042B136800F0AE80F6
:1046180013F4802F136800F0D3801C0340F1DE8070
:10462800D9F83C300BB148469847D9F85430002B9C
:1046380000F0B980D9F85430D8071FD5D9F8002030
:10464800042189F83510136823F0010313606C4BBB
:10465800A3FB0535AD0A02E01368D90704D5019B11
:104668000133AB420193F7D9002389F8343013683A
:10467800DB074CBF0323012389F83530D9F84C30C8
:10468800002B00F09080484603B0BDE8F04318477F
:10469800186840070AD5186820F004001860A2605E
:1046A800D9F8542042F00102C9F8542027FA0CF234
:1046B800D2077FF576AE534A5348834218BF9342D8
:1046C80000F130000CBF01220022834208BF42F0F3
:1046D80001021830834208BF42F0010218308342B9
:1046E80008BF42F001021830834208BF42F00102BD
:1046F80000F55670834208BF42F001021830834229
:1047080008BF42F001021830834208BF42F001029C
:104718001830834208BF42F001021830834208BFB4
:1047280042F001021830834208BF42F001021830FB
:10473800834208BF42F001021830834208BF42F0AA
:104748000102002A7FF420AE002E7FF41DAE1A6805
:10475800042202FA0CF23A4240F09480102202FA43
:104768000CFC17EA0C0F3FF4F1AE84E623F01603B5
:104778001360536923F080035361D9F840309BB329
:10478800136823F0080313603F230025012203FA6E
:1047980001F1D9F85030A16089F8345089F83520F2
:1047A800002B7FF470AF03B0BDE8F0831B681803DB
:1047B8007FF5B7AED9F84830002B7FF4C3AEC5E615
:1047C80013F480737FF42CAF116821F0100111608D
:1047D800012289F8343089F8352021E7D9F84430A6
:1047E800002B7FF420AF20E7D9F84830002BC7D141
:1047F800CAE700BF1000024028000240B804024087
:10480800B5814E1B58000240400002404E4A4F4DB1
:10481800AB4218BF934205F114050CBF01220022D8
:10482800AB4208BF42F001021435AB4208BF42F068
:1048380001021435AB4208BF42F001021435AB4205
:1048480008BF42F001021435AB4208BF42F0010232
:1048580012B93F4A9342A6D1D9F85C5004261A6887
:1048680005F01F05AE400E4219D0570717D51004A2
:1048780066604BD5D1034FD4D9F84830002B7FF46C
:1048880002AF90E71A68102202FA0CFC17EA0C0F24
:104898003FF45CAE1A6852077FF558AE34E602263C
:1048A800AE400E4211D097070FD56660140439D573
:1048B800D00343D4D9F84430002B7FF4E4AE72E738
:1048C80013689F077FF5B1AE9BE60826AE400E42FF
:1048D8003FF469AF11077FF566AF1A68002122F02F
:1048E8000E021A600123D9F84C2003FA05F5656019
:1048F800C9F8543089F8341089F83530002A3FF463
:1049080052AF484603B0BDE8F0431047920603D4BF
:104918001A6822F004021A60D9F84030002B7FF49C
:10492800B2AE40E712F0200208D11968012421F044
:104938000A01196089F8342089F83540D9F83C30E3
:10494800002B7FF4A0AE2EE7085402581C540258DE
:1049580094540258406D70472DE9F04F0D6883B0AC
:10496800002D00F0D5800023DFF8688201229A40EC
:1049780012EA050C00F0C7804E6826F01009B9F15C
:10498800020F40F0C88003F007044FEAD30E4FF03F
:104998000F0A4FEA840900EB8E0E0AFA09FADEF8CC
:1049A800204024EA0A0A0C6904FA09F406F003090B
:1049B80044EA0A04CEF820404FEA430E0324D0F814
:1049C80000A009FA0EF904FA0EF42AEA040AE443EC
:1049D80049EA0A09C0F80090D0F808A0CF6804EAAC
:1049E8000A0A07FA0EF949EA0A09C0F80890C6F354
:1049F8000019D0F804A009FA03F92AEA020249EAE0
:104A080002024260C268F70004EA02048A6802FAF5
:104A18000EF242EA0402C26075D5644C23F0030E1C
:104A280003F00309D4F8F420C6444FEA890942F098
:104A38000202C4F8F420D4F8F42002F00202019231
:104A4800019A0F22DEF8084002FA09F224EA02026B
:104A5800574CA04225D004F58064A0427BD0554C29
:104A6800A0427ED0544CA0426FD0544CA04200F0DB
:104A78008480534CA04200F08680524CA04276D0ED
:104A8800514CA04200F08580504CA04200F0878035
:104A98004F4CA0420CBF09240A2404FA09F942EA3F
:104AA8000902CEF808204FF0B0426FEA0C0EF4036A
:104AB800D2F880204FF0B04454BF0EEA02024CEA0C
:104AC8000202C4F88020B203D4F884404FF0B04208
:104AD80054BF0EEA04044CEA0404F702C2F8844006
:104AE80014684FF0B04254BF0EEA04044CEA0404C0
:104AF8001460B40252684FF0B04454BF0EEA020288
:104B08004CEA02026260013335FA03F27FF42EAFF9
:104B180003B0BDE8F08F4FEA430E0324D0F800B08D
:104B280006F0030A04FA0EF409F1FF390AFA0EFA3C
:104B38002BEA040BB9F1010F6FEA04044AEA0B0AE5
:104B4800C0F800A03FF65EAF46E7032404FA09F96F
:104B580042EA0902A5E7012404FA09F942EA09022E
:104B68009FE7022404FA09F942EA090299E70624B0
:104B780004FA09F942EA090293E7042404FA09F954
:104B880042EA09028DE7052404FA09F942EA090212
:104B980087E7072404FA09F942EA090281E70824A9
:104BA80004FA09F942EA09027BE700BF0044025807
:104BB8000000025800080258000C02580010025861
:104BC8000014025800180258001C0258002002580D
:104BD8000024025800040058002900F0A88000238F
:104BE8002DE9F04FDFF8689183B0DFF86881DFF8CE
:104BF80068A1DFF868B14FF0010E0EFA03F212EA6D
:104C0800010C6FD023F0030503F003040F26404581
:104C18004D444FEAC404AF6806FA04F607EA0607EB
:104C2800019721D0504566D0584567D0434FB842C8
:104C38006ED0434FB84270D0424FB84263D0424F13
:104C4800B84256D0414FB84272D0DFF814E17045EF
:104C580068D0DFF810E1704514BF4FF00A0E4FF02E
:104C6800090E0EFA04F400E00024019FA74219D1AE
:104C7800AC6824EA06064FF0B044AE60D4F8805021
:104C880025EA0C05C4F88050D4F8845025EA0C05B0
:104C9800C4F88450256825EA0C052560656825EA6E
:104CA8000C05656003255C0003F007070F2605FA6D
:104CB80004F40568BF00254306FA07F70560DD0818
:104CC80000EB85052E6A26EA07062E62856825EA26
:104CD80004058560456825EA02024260C26822EA46
:104CE8000404C460013331FA03F284D103B0BDE88F
:104CF800F08F4FF0060E0EFA04F4B6E74FF0020EEE
:104D08000EFA04F4B1E74FF0050E0EFA04F4ACE71E
:104D18004FF0030E0EFA04F4A7E74FF0040E0EFA54
:104D280004F4A2E74FF0080E0EFA04F49DE770476A
:104D38004FF0070E0EFA04F497E700BF000C025874
:104D4800001002580014025800180258001C02589B
:104D580000040058000002580004025800080258D5
:104D680000200258002402580369194214BF012088
:104D78000020704702B90904816170472DE9F04F9E
:104D8800056885B00446284604F006FF012802D0CD
:104D980005B0BDE8F08F206804F0AEFE0028F7D01B
:104DA800206804F0A9FE10F4001F206802D04FF418
:104DB8000013436104F0A0FE10F4801F206802D0A5
:104DC8004FF48013436104F097FE10F0806F206861
:104DD80002D04FF08063436104F08EFE10F0020FA2
:104DE80020682FD104F088FE870000F11381206825
:104DF80004F082FEC60100F1CF80206804F07CFE3A
:104E0800000700F1BE80206804F076FE10F0007FF5
:104E180020681AD104F070FEC306B9D52568AB69BD
:104E280023F01003AB612E6AC6F34341C6F30A1799
:104E3800022902D1002F40F0C681AB6943F010036C
:104E4800AB61A5E702234361CCE704F013FFD4F874
:104E580008E080462068BEF1000F00F0998005F553
:104E6800A06500264FF0280B4FF0020A4AE000F533
:104E7800A0694A0109EB4117BB685B075DD50423AC
:104E8800BB60FB6843F00203FB60BB68980500F158
:104E9800FD80BB68DB0740F1CF80236953B101EB8C
:104EA80081003B6904EBC000C3F3120C836CA3EBD5
:104EB8000C03C3648B004FF0010C4FF0000E581820
:104EC80004EBC000C0F858E080F85DC0C7F808C01F
:104ED80090F83FE01EF0FD0F00F06481BEF1030F73
:104EE80000F040820B4404EBC30393F8502082F097
:104EF800010283F85020D4F808E0206801362035F4
:104F0800764545D206F00F0328FA03F3D907F5D5FD
:104F18002B68F1B21A04AAD400F5A0624FEA411C2A
:104F280002EB4117BB6813F004090DD00423BB60E2
:104F3800FB6843F00203FB60E0E7BB689B0640F1B7
:104F4800B3802023BB60A0E7BB6813F0200300F008
:104F5800CA8001EB8103202204EBC303BA6093F8F3
:104F68003D20012ACAD183F83D9083F85CA0FB68F4
:104F780043F00203FB6004F081FED4F808E02068E7
:104F8800BCE72046FEF7FCFA2068082343613BE7AC
:104F98004FF0007343613DE72668D6F8403402932A
:104FA800D6F840340393039B23F02E030393029B0C
:104FB800980707D5029BD90700F16381039B43F04B
:104FC80002030393029B1A0718D5039B43F00803B7
:104FD8000393029B5B0740F15C81A169022900F001
:104FE8009A81E368012B03D14EF66022C6F80424A7
:104FF8002046FEF7D3FA2046FEF7C6FA2068029B41
:105008009F0603D5039B43F020030393039BC6F835
:105018004034F3E6D5F84034204623F02E03C5F893
:105028004034FEF7B5FA0121206804F001FE20683B
:105038004FF000534361DBE6BB68980740F18E8070
:10504800FB6801EB810C23F0020304EBCC0CFB6042
:105058008B009CF85D00012800F0B280052800F064
:10506800AF80062800F0A381082800F0A08103285B
:1050780000F0DC819CF85C000246C7F808A02046D6
:10508800FEF78AFAD4F808E0206837E7FB6820685A
:1050980043F00203FB6004F0F1FD4FF40073206855
:1050A800BB60D4F808E029E7BB681B0700F1BB80A8
:1050B800BB685B057FF5E9AEFB68019243F002032C
:1050C8000091FB6004F0DAFD00991020019A01EBD1
:1050D8008103B860082004EBC30383F85D004FF434
:1050E8008063BB60D1E6D7F8089019F0400F40F014
:1050F800B180BB6813F4007340F02F81D7F8089093
:1051080019F0010F40F03F81BB6813F0080340F02D
:105118006881D7F8089019F0100F00F0C98001EBEA
:10512800810204EBC2029365032382F85D3092F892
:105138003D303BB90BFB014393F83C2012B90122E7
:1051480083F83D20FB6843F00203FB6004F096FD02
:1051580010232068BB60D4F808E0CFE6BB6813F0E2
:10516800800340F0E380BA68D20640F1D08001EBBA
:10517800810004EBC00090F83F20032A00F04B8127
:1051880012F0FD02E4D123698265002BE0D10BFB0C
:105198000143032283F85D20FB68206843F0020383
:1051A800FB60D3E7FA68206842F00202019300919D
:1051B800FA6004F063FD1022DDE90013BA6091E69D
:1051C8008CF85C0058E706F00F0606EB860804EB3F
:1051D800C808D8F8441000293FF42FAE284605F532
:1051E800A0653A4604F006FCD8F8443005EB4612B0
:1051F8003B441169D8F84C20C8F8443073013A444C
:10520800C8F84C20BC4A0A405AB1EA5822F08042F9
:1052180042F00042EA5098F8503083F0010388F8D1
:105228005030256809E6FB684FF0050C019243F001
:1052380002030091FB6001EB810304EBC30383F8D5
:105248005DC01023BB600823BB6004F017FDDDE9D7
:1052580000121AE601EB810204EBC20293650423F3
:1052680082F85D30012382F83D30FB6843F0020389
:10527800FB6004F003FD40232068BB60D4F808E01D
:105288003CE6B369204623F00053B361FEF77CF98E
:1052980094E62046FEF786F9D6F84034206823F0D5
:1052A8002E03C6F84034836943F000538361A6E6B1
:1052B800BB681B0600F1C880BB685B0500F1D7809E
:1052C800BB689B077FF51AAEFB680BFB014023F018
:1052D8000203FB6090F85D30012B00F0E180032BA6
:1052E80000F0DB80042B00F0D880052B00F0FC8058
:1052F800062B00F0E480082B00F0E1800BFB014353
:105308002046C7F808A093F85C20FEF745F9D4F8C2
:1053180008E02068F2E5029B206803F4C023B3F597
:10532800802F18BF012104F083FC61E6FB6801EBC4
:10533800810243F0020304EBC202FB60936D013368
:105348009365062382F85D30206804F097FC80237B
:105358002068BB60D4F808E0D0E5FB6843F002039E
:10536800FB6098E652F80970019347F000570091E6
:1053780042F80970624680F85CC02046FEF70CF9D6
:10538800DDE90013AEE5FA6801EB810942F002029B
:1053980004EBC909C9F85830FA6004F06FFC01231E
:1053A800BB6089F85D30D4F808E02068A6E503EB17
:1053B800010C04EBCC0CDCF858000130032825D88C
:1053C800CCF8580002200B4404EBC30383F85C00BC
:1053D80052F8093023F0804343F0004342F8093083
:1053E8004AE608230091BB60FB6843F00203FB60B8
:1053F80004F044FC0099052201EB810104EBC10390
:1054080083F85D20D4F808E0206877E50020CCF820
:1054180058000420D7E7FA680BFB014042F002026B
:1054280083652068FA6004F029FC91E60BFB0143D0
:10543800022083F85CA052F8093023F0804343F03F
:10544800004342F8093017E6FB68009143F0020375
:10545800FB6004F013FC009906230BFB014181F863
:105468005D3080232068BB60D4F808E046E5FB681F
:10547800009143F00203FB6004F000FC1023009944
:10548800BB604FF480630BFB0141BB60082381F8CC
:105498005D30D4F808E0206830E580F85CA02DE79E
:1054A80080F85C3090F83F30023B012B3FF626AF86
:1054B80090F8513083F0010380F851301EE70BFB60
:1054C8000140836D0133032B11D8836502230BFB45
:1054D800014080F85C3052F80C3023F0804343F0F0
:1054E800004342F80C3009E780F85C3006E70023F7
:1054F80083650423EBE700BF0000F81F90F8B8327B
:10550800012B0CD0012310B50446006884F8B8328A
:1055180004F014FC0023184684F8B83210BD0220A9
:10552800704700BFF8B505460E461746701C2C6834
:105538002CD1A369990727D4A369DA06F9D5A369F9
:105548009A06FCD520231022E261E361A3699F0734
:1055580001D50023A362A369DE0703D4A36943F03E
:105568000103A361636800221B4820210340012036
:1055780063606B6C85F8402043F004036B6485F826
:10558800411085F84220F8BD0020F8BDA3699B07AB
:10559800FAD4A369D9061BD4FEF732F9C01BB0426E
:1055A80001D8002EC2D16B6C2021002201200B43B0
:1055B80085F840206B6485F8411085F84220F8BDD5
:1055C800FEF71EF9C01B8642EDD3002EEBD02C68E7
:1055D800A3699B06F4D5B5E700E800FEF8B50546D3
:1055E8000E4617462C68A3699B0649D4A369DA06B8
:1055F80026D5731C38D1A3699E06FCD5202310221A
:10560800E261E361A369990701D50023A362A36955
:10561800DA0703D4A36943F00103A3616368002296
:10562800184820210340012063606B6C85F84020F6
:1056380043F004036B6485F8411085F84220F8BDF7
:10564800FEF7DEF8C01BB04201D8002ECAD16B6C41
:105658002021002201200B4385F840206B6485F847
:10566800411085F84220F8BDA3699806C6D4FEF714
:10567800C7F8C01B8642EAD3002EE8D02C68B8E7EA
:105688000020F8BD00E800FE00284ED010B590F8C4
:105698004130044603F0FF02002B41D02368242147
:1056A800626884F84110196822F07062E06821F09D
:1056B8000101012819601A619A6822F400429A606F
:1056C800A26829D042F4044202289A6002D14FF419
:1056D80000625A6058684FF0200C1549226901434E
:1056E8005960D96821F40041D960D4E90501024321
:1056F80042EA0122D4E90710DA6000220143104689
:105708001960196841F001011960626484F841C0A8
:10571800226384F8422010BD42F400429A60D9E71F
:1057280080F84020FCF734FBB8E70120704700BF41
:10573800008000022DE9F047984690F84130089E15
:10574800202B40F0878090F840300446012B00F071
:10575800818001238946174680F84030FEF750F8CB
:10576800054604E0FEF74CF8401B192875D8236855
:10577800986910F40040F5D1212267626063C9F38B
:10578800090784F84120102284F842206064A4F8B4
:105798002A80628D92B2FF2A6DD8628D494892B2F2
:1057A800D1B222855A6802403A4342EA0142464948
:1057B80011435960DFF81C814FF0FF0ADFF8189198
:1057C800638D2A46314620469BB2002B30D0FFF726
:1057D800A9FE002873D1606A216810F8012B238D77
:1057E8008A62628D013B6062013A9BB292B2238564
:1057F8006285628D92B2002BE2D1002AE0D0701C43
:1058080043D18B691A06FCD5638D9BB2FF2B48D90F
:105818004B682A46A4F828A0204603EA08033B431D
:1058280043EA09034B603146638D9BB2002BCED10E
:10583800FFF7D4FE002842D123682021234DD961E7
:105848005A682A405A6084F8411084F8400084F865
:10585800420000E00220BDE8F087636C20210022AE
:1058680001200B4384F84020636484F8411084F8D5
:105878004220BDE8F0875A6812490A4014493A4361
:105888001143FF222285596094E78B691B06BBD41C
:10589800FDF7B6FF401B8642DFD3002EDDD021681E
:1058A800ADE7638D9BB2DAB223854B6803EA080340
:1058B80043EA02433B4343F000734B6080E7012017
:1058C800BDE8F087009800FC0020008200E800FE98
:1058D8000020FF81009C00FC0000FF012DE9F0473B
:1058E8001F4690F84130202B40F08E8004460D462C
:1058F800002900F08380B2FA82F916464FEA591956
:10590800002A7BD05FFA83FA90F84030012B7BD0D5
:10591800012380F84030FDF773FF2123656280463C
:10592800256884F8413084F842A0C4F8449066851C
:105938006B68C4F8349023F400436B607B1C66D119
:10594800AE693607FCD50823EB61E368022B06D065
:10595800AE69F60328D4AE69F603F9D524E0AB693D
:105968001907FCD50823EB617B1CF1D0AB69DD037B
:105978001AD4FDF745FFA0EB0800874253D3002F48
:1059880051D02568F0E7424639462046FFF7CAFD60
:1059980000285BD1636A226813F8011B9162658D48
:1059A8006362013DADB26585638D9BB2002BEAD180
:1059B800424639462046FFF711FE00284DD022689E
:1059C800536843F400435360636C042B54D10023A1
:1059D80063642023D361781C41D193691904FCD4F2
:1059E80051680023202041F40041516084F84100AF
:1059F800184684F8423084F8403003E04FF40073CE
:105A080001206364BDE8F0870220BDE8F087AB6938
:105A1800180733D4FDF7F4FEA0EB0800874202D341
:105A28000FB125688AE7636C2020002122680343B0
:105A380084F84010636484F84100012084F842101F
:105A4800536843F400435360BDE8F087226801209F
:105A5800536843F400435360D4E72268B9E7936975
:105A68001B04BDD5FDF7CCFEA0EB08008742DAD3B6
:105A7800002FD8D02268AEE70120C3E70823EB61E6
:105A8800E368022B7FF470AF08E0FDF7B9FEA0EBE6
:105A980008008742C7D3002FC5D02568AB691A070D
:105AA800F3D55FE70268436B9169126803B1184741
:105AB800704700BF90F84100704700BF90F8412040
:105AC800202A23D15FFA82FC90F840200346012A5D
